{
  "contractName": "ActivityPool",
  "abi": [
    {
      "inputs": [],
      "stateMutability": "nonpayable",
      "type": "constructor"
    },
    {
      "inputs": [],
      "name": "getListOfActivity",
      "outputs": [
        {
          "internalType": "contract Activity[]",
          "name": "",
          "type": "address[]"
        }
      ],
      "stateMutability": "view",
      "type": "function"
    },
    {
      "inputs": [],
      "name": "registerActivity",
      "outputs": [],
      "stateMutability": "nonpayable",
      "type": "function"
    }
  ],
  "bytecode": "0x608060405234801561001057600080fd5b50336000806101000a81548173ffffffffffffffffffffffffffffffffffffffff021916908373ffffffffffffffffffffffffffffffffffffffff160217905550610279806100606000396000f3fe608060405234801561001057600080fd5b50600436106100365760003560e01c80632b1dfd341461003b5780637e33473114610045575b600080fd5b610043610063565b005b61004d610065565b60405161005a9190610221565b60405180910390f35b565b606060018054806020026020016040519081016040528092919081815260200182805480156100e957602002820191906000526020600020905b8160009054906101000a900473ffffffffffffffffffffffffffffffffffffffff1673ffffffffffffffffffffffffffffffffffffffff168152602001906001019080831161009f575b5050505050905090565b600081519050919050565b600082825260208201905092915050565b6000819050602082019050919050565b600073ffffffffffffffffffffffffffffffffffffffff82169050919050565b6000819050919050565b600061016461015f61015a8461011f565b61013f565b61011f565b9050919050565b600061017682610149565b9050919050565b60006101888261016b565b9050919050565b6101988161017d565b82525050565b60006101aa838361018f565b60208301905092915050565b6000602082019050919050565b60006101ce826100f3565b6101d881856100fe565b93506101e38361010f565b8060005b838110156102145781516101fb888261019e565b9750610206836101b6565b9250506001810190506101e7565b5085935050505092915050565b6000602082019050818103600083015261023b81846101c3565b90509291505056fea26469706673582212200bede0504e9d5bf6e2e4378a554c250620d8b9ce049350c68e803c6bdae01ef064736f6c63430008130033",
  "immutableReferences": {},
  "source": "// SPDX-License-Identifier: MIT\npragma solidity ^0.8.18;\n\ninterface Activity {\n  function getName() external returns (string memory);\n}\n\ninterface IERC20 {\n  function transferFrom(address from, address to, uint256 amount) external returns (bool);\n  function allowance(address owner, address spender) external view returns (uint256);\n}\n\ncontract ActivityPool {\n  \n  address owner;\n\n  Activity[] activities;\n\n  constructor() {\n    owner = msg.sender;\n  }\n\n  function getListOfActivity() external view returns (Activity[] memory) {\n    return activities;\n  }\n\n  function registerActivity() external {\n  \n  }\n\n  modifier onlyOwner() {\n    require((owner == msg.sender), \"Callable only owner\");\n    _;\n  }\n}\n",
  "sourcePath": "/Users/yosephwijaya/Documents/dev-others/ethglobal.com/snappay/contracts/ActivityPool.sol",
  "compiler": {
    "name": "solc",
    "version": "0.8.19+commit.7dd6d404.Emscripten.clang"
  },
  "schemaVersion": "3.4.13",
  "updatedAt": "2023-04-14T21:41:37.842Z",
  "devdoc": {
    "kind": "dev",
    "methods": {},
    "version": 1
  },
  "userdoc": {
    "kind": "user",
    "methods": {},
    "version": 1
  }
}